{
  "_format": "hh-sol-artifact-1",
  "contractName": "CreditSBT",
  "sourceName": "contracts/CreditSBT.sol",
  "abi": [
    {
      "inputs": [
        {
          "internalType": "address",
          "name": "_verifier",
          "type": "address"
        }
      ],
      "stateMutability": "nonpayable",
      "type": "constructor"
    },
    {
      "inputs": [
        {
          "internalType": "address",
          "name": "sender",
          "type": "address"
        },
        {
          "internalType": "uint256",
          "name": "tokenId",
          "type": "uint256"
        },
        {
          "internalType": "address",
          "name": "owner",
          "type": "address"
        }
      ],
      "name": "ERC721IncorrectOwner",
      "type": "error"
    },
    {
      "inputs": [
        {
          "internalType": "address",
          "name": "operator",
          "type": "address"
        },
        {
          "internalType": "uint256",
          "name": "tokenId",
          "type": "uint256"
        }
      ],
      "name": "ERC721InsufficientApproval",
      "type": "error"
    },
    {
      "inputs": [
        {
          "internalType": "address",
          "name": "approver",
          "type": "address"
        }
      ],
      "name": "ERC721InvalidApprover",
      "type": "error"
    },
    {
      "inputs": [
        {
          "internalType": "address",
          "name": "operator",
          "type": "address"
        }
      ],
      "name": "ERC721InvalidOperator",
      "type": "error"
    },
    {
      "inputs": [
        {
          "internalType": "address",
          "name": "owner",
          "type": "address"
        }
      ],
      "name": "ERC721InvalidOwner",
      "type": "error"
    },
    {
      "inputs": [
        {
          "internalType": "address",
          "name": "receiver",
          "type": "address"
        }
      ],
      "name": "ERC721InvalidReceiver",
      "type": "error"
    },
    {
      "inputs": [
        {
          "internalType": "address",
          "name": "sender",
          "type": "address"
        }
      ],
      "name": "ERC721InvalidSender",
      "type": "error"
    },
    {
      "inputs": [
        {
          "internalType": "uint256",
          "name": "tokenId",
          "type": "uint256"
        }
      ],
      "name": "ERC721NonexistentToken",
      "type": "error"
    },
    {
      "inputs": [
        {
          "internalType": "address",
          "name": "owner",
          "type": "address"
        }
      ],
      "name": "OwnableInvalidOwner",
      "type": "error"
    },
    {
      "inputs": [
        {
          "internalType": "address",
          "name": "account",
          "type": "address"
        }
      ],
      "name": "OwnableUnauthorizedAccount",
      "type": "error"
    },
    {
      "anonymous": false,
      "inputs": [
        {
          "indexed": true,
          "internalType": "address",
          "name": "owner",
          "type": "address"
        },
        {
          "indexed": true,
          "internalType": "address",
          "name": "approved",
          "type": "address"
        },
        {
          "indexed": true,
          "internalType": "uint256",
          "name": "tokenId",
          "type": "uint256"
        }
      ],
      "name": "Approval",
      "type": "event"
    },
    {
      "anonymous": false,
      "inputs": [
        {
          "indexed": true,
          "internalType": "address",
          "name": "owner",
          "type": "address"
        },
        {
          "indexed": true,
          "internalType": "address",
          "name": "operator",
          "type": "address"
        },
        {
          "indexed": false,
          "internalType": "bool",
          "name": "approved",
          "type": "bool"
        }
      ],
      "name": "ApprovalForAll",
      "type": "event"
    },
    {
      "anonymous": false,
      "inputs": [
        {
          "indexed": true,
          "internalType": "address",
          "name": "previousOwner",
          "type": "address"
        },
        {
          "indexed": true,
          "internalType": "address",
          "name": "newOwner",
          "type": "address"
        }
      ],
      "name": "OwnershipTransferred",
      "type": "event"
    },
    {
      "anonymous": false,
      "inputs": [
        {
          "indexed": true,
          "internalType": "address",
          "name": "from",
          "type": "address"
        },
        {
          "indexed": true,
          "internalType": "address",
          "name": "to",
          "type": "address"
        },
        {
          "indexed": true,
          "internalType": "uint256",
          "name": "tokenId",
          "type": "uint256"
        }
      ],
      "name": "Transfer",
      "type": "event"
    },
    {
      "inputs": [
        {
          "internalType": "address",
          "name": "to",
          "type": "address"
        },
        {
          "internalType": "uint256",
          "name": "tokenId",
          "type": "uint256"
        }
      ],
      "name": "approve",
      "outputs": [],
      "stateMutability": "nonpayable",
      "type": "function"
    },
    {
      "inputs": [
        {
          "internalType": "address",
          "name": "owner",
          "type": "address"
        }
      ],
      "name": "balanceOf",
      "outputs": [
        {
          "internalType": "uint256",
          "name": "",
          "type": "uint256"
        }
      ],
      "stateMutability": "view",
      "type": "function"
    },
    {
      "inputs": [
        {
          "internalType": "uint256",
          "name": "",
          "type": "uint256"
        }
      ],
      "name": "creditTiers",
      "outputs": [
        {
          "internalType": "uint256",
          "name": "",
          "type": "uint256"
        }
      ],
      "stateMutability": "view",
      "type": "function"
    },
    {
      "inputs": [
        {
          "internalType": "uint256",
          "name": "tokenId",
          "type": "uint256"
        }
      ],
      "name": "getApproved",
      "outputs": [
        {
          "internalType": "address",
          "name": "",
          "type": "address"
        }
      ],
      "stateMutability": "view",
      "type": "function"
    },
    {
      "inputs": [
        {
          "internalType": "address",
          "name": "owner",
          "type": "address"
        },
        {
          "internalType": "address",
          "name": "operator",
          "type": "address"
        }
      ],
      "name": "isApprovedForAll",
      "outputs": [
        {
          "internalType": "bool",
          "name": "",
          "type": "bool"
        }
      ],
      "stateMutability": "view",
      "type": "function"
    },
    {
      "inputs": [
        {
          "internalType": "bytes",
          "name": "proof",
          "type": "bytes"
        },
        {
          "internalType": "uint256[]",
          "name": "pubSignals",
          "type": "uint256[]"
        }
      ],
      "name": "mint",
      "outputs": [],
      "stateMutability": "nonpayable",
      "type": "function"
    },
    {
      "inputs": [
        {
          "internalType": "address",
          "name": "to",
          "type": "address"
        },
        {
          "internalType": "bytes",
          "name": "proof",
          "type": "bytes"
        },
        {
          "internalType": "uint256[]",
          "name": "pubSignals",
          "type": "uint256[]"
        }
      ],
      "name": "mintTo",
      "outputs": [],
      "stateMutability": "nonpayable",
      "type": "function"
    },
    {
      "inputs": [],
      "name": "name",
      "outputs": [
        {
          "internalType": "string",
          "name": "",
          "type": "string"
        }
      ],
      "stateMutability": "view",
      "type": "function"
    },
    {
      "inputs": [],
      "name": "owner",
      "outputs": [
        {
          "internalType": "address",
          "name": "",
          "type": "address"
        }
      ],
      "stateMutability": "view",
      "type": "function"
    },
    {
      "inputs": [
        {
          "internalType": "uint256",
          "name": "tokenId",
          "type": "uint256"
        }
      ],
      "name": "ownerOf",
      "outputs": [
        {
          "internalType": "address",
          "name": "",
          "type": "address"
        }
      ],
      "stateMutability": "view",
      "type": "function"
    },
    {
      "inputs": [],
      "name": "renounceOwnership",
      "outputs": [],
      "stateMutability": "nonpayable",
      "type": "function"
    },
    {
      "inputs": [
        {
          "internalType": "address",
          "name": "from",
          "type": "address"
        },
        {
          "internalType": "address",
          "name": "to",
          "type": "address"
        },
        {
          "internalType": "uint256",
          "name": "tokenId",
          "type": "uint256"
        }
      ],
      "name": "safeTransferFrom",
      "outputs": [],
      "stateMutability": "nonpayable",
      "type": "function"
    },
    {
      "inputs": [
        {
          "internalType": "address",
          "name": "from",
          "type": "address"
        },
        {
          "internalType": "address",
          "name": "to",
          "type": "address"
        },
        {
          "internalType": "uint256",
          "name": "tokenId",
          "type": "uint256"
        },
        {
          "internalType": "bytes",
          "name": "data",
          "type": "bytes"
        }
      ],
      "name": "safeTransferFrom",
      "outputs": [],
      "stateMutability": "nonpayable",
      "type": "function"
    },
    {
      "inputs": [
        {
          "internalType": "address",
          "name": "operator",
          "type": "address"
        },
        {
          "internalType": "bool",
          "name": "approved",
          "type": "bool"
        }
      ],
      "name": "setApprovalForAll",
      "outputs": [],
      "stateMutability": "nonpayable",
      "type": "function"
    },
    {
      "inputs": [
        {
          "internalType": "address",
          "name": "_verifier",
          "type": "address"
        }
      ],
      "name": "setVerifier",
      "outputs": [],
      "stateMutability": "nonpayable",
      "type": "function"
    },
    {
      "inputs": [
        {
          "internalType": "bytes4",
          "name": "interfaceId",
          "type": "bytes4"
        }
      ],
      "name": "supportsInterface",
      "outputs": [
        {
          "internalType": "bool",
          "name": "",
          "type": "bool"
        }
      ],
      "stateMutability": "view",
      "type": "function"
    },
    {
      "inputs": [],
      "name": "symbol",
      "outputs": [
        {
          "internalType": "string",
          "name": "",
          "type": "string"
        }
      ],
      "stateMutability": "view",
      "type": "function"
    },
    {
      "inputs": [
        {
          "internalType": "uint256",
          "name": "tokenId",
          "type": "uint256"
        }
      ],
      "name": "tokenURI",
      "outputs": [
        {
          "internalType": "string",
          "name": "",
          "type": "string"
        }
      ],
      "stateMutability": "view",
      "type": "function"
    },
    {
      "inputs": [
        {
          "internalType": "address",
          "name": "from",
          "type": "address"
        },
        {
          "internalType": "address",
          "name": "to",
          "type": "address"
        },
        {
          "internalType": "uint256",
          "name": "tokenId",
          "type": "uint256"
        }
      ],
      "name": "transferFrom",
      "outputs": [],
      "stateMutability": "nonpayable",
      "type": "function"
    },
    {
      "inputs": [
        {
          "internalType": "address",
          "name": "newOwner",
          "type": "address"
        }
      ],
      "name": "transferOwnership",
      "outputs": [],
      "stateMutability": "nonpayable",
      "type": "function"
    },
    {
      "inputs": [],
      "name": "verifier",
      "outputs": [
        {
          "internalType": "address",
          "name": "",
          "type": "address"
        }
      ],
      "stateMutability": "view",
      "type": "function"
    }
  ],
  "bytecode": "0x60806040523480156200001157600080fd5b5060405162002b4638038062002b468339818101604052810190620000379190620002c9565b336040518060400160405280601081526020017f5075626c696344617461437265646974000000000000000000000000000000008152506040518060400160405280600381526020017f50444300000000000000000000000000000000000000000000000000000000008152508160009081620000b5919062000575565b508060019081620000c7919062000575565b505050600073ffffffffffffffffffffffffffffffffffffffff168173ffffffffffffffffffffffffffffffffffffffff16036200013f5760006040517f1e4fbdf70000000000000000000000000000000000000000000000000000000081526004016200013691906200066d565b60405180910390fd5b62000150816200019960201b60201c565b5080600860006101000a81548173ffffffffffffffffffffffffffffffffffffffff021916908373ffffffffffffffffffffffffffffffffffffffff160217905550506200068a565b6000600660009054906101000a900473ffffffffffffffffffffffffffffffffffffffff16905081600660006101000a81548173ffffffffffffffffffffffffffffffffffffffff021916908373ffffffffffffffffffffffffffffffffffffffff1602179055508173ffffffffffffffffffffffffffffffffffffffff168173ffffffffffffffffffffffffffffffffffffffff167f8be0079c531659141344cd1fd0a4f28419497f9722a3daafe3b4186f6b6457e060405160405180910390a35050565b600080fd5b600073ffffffffffffffffffffffffffffffffffffffff82169050919050565b6000620002918262000264565b9050919050565b620002a38162000284565b8114620002af57600080fd5b50565b600081519050620002c38162000298565b92915050565b600060208284031215620002e257620002e16200025f565b5b6000620002f284828501620002b2565b91505092915050565b600081519050919050565b7f4e487b7100000000000000000000000000000000000000000000000000000000600052604160045260246000fd5b7f4e487b7100000000000000000000000000000000000000000000000000000000600052602260045260246000fd5b600060028204905060018216806200037d57607f821691505b60208210810362000393576200039262000335565b5b50919050565b60008190508160005260206000209050919050565b60006020601f8301049050919050565b600082821b905092915050565b600060088302620003fd7fffffffffffffffffffffffffffffffffffffffffffffffffffffffffffffffff82620003be565b620004098683620003be565b95508019841693508086168417925050509392505050565b6000819050919050565b6000819050919050565b600062000456620004506200044a8462000421565b6200042b565b62000421565b9050919050565b6000819050919050565b620004728362000435565b6200048a62000481826200045d565b848454620003cb565b825550505050565b600090565b620004a162000492565b620004ae81848462000467565b505050565b5b81811015620004d657620004ca60008262000497565b600181019050620004b4565b5050565b601f8211156200052557620004ef8162000399565b620004fa84620003ae565b810160208510156200050a578190505b620005226200051985620003ae565b830182620004b3565b50505b505050565b600082821c905092915050565b60006200054a600019846008026200052a565b1980831691505092915050565b600062000565838362000537565b9150826002028217905092915050565b6200058082620002fb565b67ffffffffffffffff8111156200059c576200059b62000306565b5b620005a8825462000364565b620005b5828285620004da565b600060209050601f831160018114620005ed5760008415620005d8578287015190505b620005e4858262000557565b86555062000654565b601f198416620005fd8662000399565b60005b82811015620006275784890151825560018201915060208501945060208101905062000600565b8683101562000647578489015162000643601f89168262000537565b8355505b6001600288020188555050505b505050505050565b620006678162000284565b82525050565b60006020820190506200068460008301846200065c565b92915050565b6124ac806200069a6000396000f3fe608060405234801561001057600080fd5b50600436106101375760003560e01c806365aa2cc6116100b857806395d89b411161007c57806395d89b4114610338578063a22cb46514610356578063b88d4fde14610372578063c87b56dd1461038e578063e985e9c5146103be578063f2fde38b146103ee57610137565b806365aa2cc61461029457806370a08231146102c4578063715018a6146102f457806384eaa9b6146102fe5780638da5cb5b1461031a57610137565b80632b7ac3f3116100ff5780632b7ac3f3146101f2578063387b711d1461021057806342842e0e1461022c5780635437988d146102485780636352211e1461026457610137565b806301ffc9a71461013c57806306fdde031461016c578063081812fc1461018a578063095ea7b3146101ba57806323b872dd146101d6575b600080fd5b61015660048036038101906101519190611a50565b61040a565b6040516101639190611a98565b60405180910390f35b6101746104ec565b6040516101819190611b43565b60405180910390f35b6101a4600480360381019061019f9190611b9b565b61057e565b6040516101b19190611c09565b60405180910390f35b6101d460048036038101906101cf9190611c50565b61059a565b005b6101f060048036038101906101eb9190611c90565b6105b0565b005b6101fa6105eb565b6040516102079190611c09565b60405180910390f35b61022a60048036038101906102259190611ee0565b610611565b005b61024660048036038101906102419190611c90565b610697565b005b610262600480360381019061025d9190611f58565b6106b7565b005b61027e60048036038101906102799190611b9b565b610703565b60405161028b9190611c09565b60405180910390f35b6102ae60048036038101906102a99190611b9b565b610715565b6040516102bb9190611f94565b60405180910390f35b6102de60048036038101906102d99190611f58565b61072d565b6040516102eb9190611f94565b60405180910390f35b6102fc6107e7565b005b61031860048036038101906103139190611faf565b6107fb565b005b61032261088a565b60405161032f9190611c09565b60405180910390f35b6103406108b4565b60405161034d9190611b43565b60405180910390f35b610370600480360381019061036b9190612066565b610946565b005b61038c600480360381019061038791906120a6565b61095c565b005b6103a860048036038101906103a39190611b9b565b610997565b6040516103b59190611b43565b60405180910390f35b6103d860048036038101906103d39190612129565b610a00565b6040516103e59190611a98565b60405180910390f35b61040860048036038101906104039190611f58565b610a94565b005b60007f80ac58cd000000000000000000000000000000000000000000000000000000007bffffffffffffffffffffffffffffffffffffffffffffffffffffffff1916827bffffffffffffffffffffffffffffffffffffffffffffffffffffffff191614806104d557507f5b5e139f000000000000000000000000000000000000000000000000000000007bffffffffffffffffffffffffffffffffffffffffffffffffffffffff1916827bffffffffffffffffffffffffffffffffffffffffffffffffffffffff1916145b806104e557506104e482610b1a565b5b9050919050565b6060600080546104fb90612198565b80601f016020809104026020016040519081016040528092919081815260200182805461052790612198565b80156105745780601f1061054957610100808354040283529160200191610574565b820191906000526020600020905b81548152906001019060200180831161055757829003601f168201915b5050505050905090565b600061058982610b84565b5061059382610c0c565b9050919050565b6105ac82826105a7610c49565b610c51565b5050565b6040517f08c379a00000000000000000000000000000000000000000000000000000000081526004016105e290612215565b60405180910390fd5b600860009054906101000a900473ffffffffffffffffffffffffffffffffffffffff1681565b60006007600081548092919061062690612264565b9190505590506106363382610c63565b6000825111156106785781600081518110610654576106536122ac565b5b60200260200101516009600083815260200190815260200160002081905550610692565b600160096000838152602001908152602001600020819055505b505050565b6106b28383836040518060200160405280600081525061095c565b505050565b6106bf610c81565b80600860006101000a81548173ffffffffffffffffffffffffffffffffffffffff021916908373ffffffffffffffffffffffffffffffffffffffff16021790555050565b600061070e82610b84565b9050919050565b60096020528060005260406000206000915090505481565b60008073ffffffffffffffffffffffffffffffffffffffff168273ffffffffffffffffffffffffffffffffffffffff16036107a05760006040517f89c62b640000000000000000000000000000000000000000000000000000000081526004016107979190611c09565b60405180910390fd5b600360008373ffffffffffffffffffffffffffffffffffffffff1673ffffffffffffffffffffffffffffffffffffffff168152602001908152602001600020549050919050565b6107ef610c81565b6107f96000610d08565b565b610803610c81565b60006007600081548092919061081890612264565b9190505590506108288482610c63565b60008251111561086a5781600081518110610846576108456122ac565b5b60200260200101516009600083815260200190815260200160002081905550610884565b600160096000838152602001908152602001600020819055505b50505050565b6000600660009054906101000a900473ffffffffffffffffffffffffffffffffffffffff16905090565b6060600180546108c390612198565b80601f01602080910402602001604051908101604052809291908181526020018280546108ef90612198565b801561093c5780601f106109115761010080835404028352916020019161093c565b820191906000526020600020905b81548152906001019060200180831161091f57829003601f168201915b5050505050905090565b610958610951610c49565b8383610dce565b5050565b6040517f08c379a000000000000000000000000000000000000000000000000000000000815260040161098e90612215565b60405180910390fd5b60606109a282610b84565b5060006109ad610f3d565b905060008151116109cd57604051806020016040528060008152506109f8565b806109d784610f54565b6040516020016109e8929190612317565b6040516020818303038152906040525b915050919050565b6000600560008473ffffffffffffffffffffffffffffffffffffffff1673ffffffffffffffffffffffffffffffffffffffff16815260200190815260200160002060008373ffffffffffffffffffffffffffffffffffffffff1673ffffffffffffffffffffffffffffffffffffffff16815260200190815260200160002060009054906101000a900460ff16905092915050565b610a9c610c81565b600073ffffffffffffffffffffffffffffffffffffffff168173ffffffffffffffffffffffffffffffffffffffff1603610b0e5760006040517f1e4fbdf7000000000000000000000000000000000000000000000000000000008152600401610b059190611c09565b60405180910390fd5b610b1781610d08565b50565b60007f01ffc9a7000000000000000000000000000000000000000000000000000000007bffffffffffffffffffffffffffffffffffffffffffffffffffffffff1916827bffffffffffffffffffffffffffffffffffffffffffffffffffffffff1916149050919050565b600080610b9083611022565b9050600073ffffffffffffffffffffffffffffffffffffffff168173ffffffffffffffffffffffffffffffffffffffff1603610c0357826040517f7e273289000000000000000000000000000000000000000000000000000000008152600401610bfa9190611f94565b60405180910390fd5b80915050919050565b60006004600083815260200190815260200160002060009054906101000a900473ffffffffffffffffffffffffffffffffffffffff169050919050565b600033905090565b610c5e838383600161105f565b505050565b610c7d828260405180602001604052806000815250611224565b5050565b610c89610c49565b73ffffffffffffffffffffffffffffffffffffffff16610ca761088a565b73ffffffffffffffffffffffffffffffffffffffff1614610d0657610cca610c49565b6040517f118cdaa7000000000000000000000000000000000000000000000000000000008152600401610cfd9190611c09565b60405180910390fd5b565b6000600660009054906101000a900473ffffffffffffffffffffffffffffffffffffffff16905081600660006101000a81548173ffffffffffffffffffffffffffffffffffffffff021916908373ffffffffffffffffffffffffffffffffffffffff1602179055508173ffffffffffffffffffffffffffffffffffffffff168173ffffffffffffffffffffffffffffffffffffffff167f8be0079c531659141344cd1fd0a4f28419497f9722a3daafe3b4186f6b6457e060405160405180910390a35050565b600073ffffffffffffffffffffffffffffffffffffffff168273ffffffffffffffffffffffffffffffffffffffff1603610e3f57816040517f5b08ba18000000000000000000000000000000000000000000000000000000008152600401610e369190611c09565b60405180910390fd5b80600560008573ffffffffffffffffffffffffffffffffffffffff1673ffffffffffffffffffffffffffffffffffffffff16815260200190815260200160002060008473ffffffffffffffffffffffffffffffffffffffff1673ffffffffffffffffffffffffffffffffffffffff16815260200190815260200160002060006101000a81548160ff0219169083151502179055508173ffffffffffffffffffffffffffffffffffffffff168373ffffffffffffffffffffffffffffffffffffffff167f17307eab39ab6107e8899845ad3d59bd9653f200f220920489ca2b5937696c3183604051610f309190611a98565b60405180910390a3505050565b606060405180602001604052806000815250905090565b606060006001610f6384611248565b01905060008167ffffffffffffffff811115610f8257610f81611ced565b5b6040519080825280601f01601f191660200182016040528015610fb45781602001600182028036833780820191505090505b509050600082602083010190505b600115611017578080600190039150507f3031323334353637383961626364656600000000000000000000000000000000600a86061a8153600a858161100b5761100a61233b565b5b04945060008503610fc2575b819350505050919050565b60006002600083815260200190815260200160002060009054906101000a900473ffffffffffffffffffffffffffffffffffffffff169050919050565b80806110985750600073ffffffffffffffffffffffffffffffffffffffff168273ffffffffffffffffffffffffffffffffffffffff1614155b156111cc5760006110a884610b84565b9050600073ffffffffffffffffffffffffffffffffffffffff168373ffffffffffffffffffffffffffffffffffffffff161415801561111357508273ffffffffffffffffffffffffffffffffffffffff168173ffffffffffffffffffffffffffffffffffffffff1614155b801561112657506111248184610a00565b155b1561116857826040517fa9fbf51f00000000000000000000000000000000000000000000000000000000815260040161115f9190611c09565b60405180910390fd5b81156111ca57838573ffffffffffffffffffffffffffffffffffffffff168273ffffffffffffffffffffffffffffffffffffffff167f8c5be1e5ebec7d5bd14f71427d1e84f3dd0314c0f7b2291e5b200ac8c7c3b92560405160405180910390a45b505b836004600085815260200190815260200160002060006101000a81548173ffffffffffffffffffffffffffffffffffffffff021916908373ffffffffffffffffffffffffffffffffffffffff16021790555050505050565b61122e838361139b565b611243611239610c49565b6000858585611494565b505050565b600080600090507a184f03e93ff9f4daa797ed6e38ed64bf6a1f01000000000000000083106112a6577a184f03e93ff9f4daa797ed6e38ed64bf6a1f010000000000000000838161129c5761129b61233b565b5b0492506040810190505b6d04ee2d6d415b85acef810000000083106112e3576d04ee2d6d415b85acef810000000083816112d9576112d861233b565b5b0492506020810190505b662386f26fc10000831061131257662386f26fc1000083816113085761130761233b565b5b0492506010810190505b6305f5e100831061133b576305f5e10083816113315761133061233b565b5b0492506008810190505b61271083106113605761271083816113565761135561233b565b5b0492506004810190505b6064831061138357606483816113795761137861233b565b5b0492506002810190505b600a8310611392576001810190505b80915050919050565b600073ffffffffffffffffffffffffffffffffffffffff168273ffffffffffffffffffffffffffffffffffffffff160361140d5760006040517f64a0ae920000000000000000000000000000000000000000000000000000000081526004016114049190611c09565b60405180910390fd5b600061141b83836000611645565b9050600073ffffffffffffffffffffffffffffffffffffffff168173ffffffffffffffffffffffffffffffffffffffff161461148f5760006040517f73c6ac6e0000000000000000000000000000000000000000000000000000000081526004016114869190611c09565b60405180910390fd5b505050565b60008373ffffffffffffffffffffffffffffffffffffffff163b111561163e578273ffffffffffffffffffffffffffffffffffffffff1663150b7a02868685856040518563ffffffff1660e01b81526004016114f394939291906123bf565b6020604051808303816000875af192505050801561152f57506040513d601f19601f8201168201806040525081019061152c9190612420565b60015b6115b3573d806000811461155f576040519150601f19603f3d011682016040523d82523d6000602084013e611564565b606091505b5060008151036115ab57836040517f64a0ae920000000000000000000000000000000000000000000000000000000081526004016115a29190611c09565b60405180910390fd5b805160208201fd5b63150b7a0260e01b7bffffffffffffffffffffffffffffffffffffffffffffffffffffffff1916817bffffffffffffffffffffffffffffffffffffffffffffffffffffffff19161461163c57836040517f64a0ae920000000000000000000000000000000000000000000000000000000081526004016116339190611c09565b60405180910390fd5b505b5050505050565b60008061165184611022565b9050600073ffffffffffffffffffffffffffffffffffffffff168373ffffffffffffffffffffffffffffffffffffffff16146116935761169281848661185f565b5b600073ffffffffffffffffffffffffffffffffffffffff168173ffffffffffffffffffffffffffffffffffffffff1614611724576116d560008560008061105f565b6001600360008373ffffffffffffffffffffffffffffffffffffffff1673ffffffffffffffffffffffffffffffffffffffff168152602001908152602001600020600082825403925050819055505b600073ffffffffffffffffffffffffffffffffffffffff168573ffffffffffffffffffffffffffffffffffffffff16146117a7576001600360008773ffffffffffffffffffffffffffffffffffffffff1673ffffffffffffffffffffffffffffffffffffffff168152602001908152602001600020600082825401925050819055505b846002600086815260200190815260200160002060006101000a81548173ffffffffffffffffffffffffffffffffffffffff021916908373ffffffffffffffffffffffffffffffffffffffff160217905550838573ffffffffffffffffffffffffffffffffffffffff168273ffffffffffffffffffffffffffffffffffffffff167fddf252ad1be2c89b69c2b068fc378daa952ba7f163c4a11628f55a4df523b3ef60405160405180910390a4809150509392505050565b61186a838383611923565b61191e57600073ffffffffffffffffffffffffffffffffffffffff168373ffffffffffffffffffffffffffffffffffffffff16036118df57806040517f7e2732890000000000000000000000000000000000000000000000000000000081526004016118d69190611f94565b60405180910390fd5b81816040517f177e802f00000000000000000000000000000000000000000000000000000000815260040161191592919061244d565b60405180910390fd5b505050565b60008073ffffffffffffffffffffffffffffffffffffffff168373ffffffffffffffffffffffffffffffffffffffff16141580156119db57508273ffffffffffffffffffffffffffffffffffffffff168473ffffffffffffffffffffffffffffffffffffffff16148061199c575061199b8484610a00565b5b806119da57508273ffffffffffffffffffffffffffffffffffffffff166119c283610c0c565b73ffffffffffffffffffffffffffffffffffffffff16145b5b90509392505050565b6000604051905090565b600080fd5b600080fd5b60007fffffffff0000000000000000000000000000000000000000000000000000000082169050919050565b611a2d816119f8565b8114611a3857600080fd5b50565b600081359050611a4a81611a24565b92915050565b600060208284031215611a6657611a656119ee565b5b6000611a7484828501611a3b565b91505092915050565b60008115159050919050565b611a9281611a7d565b82525050565b6000602082019050611aad6000830184611a89565b92915050565b600081519050919050565b600082825260208201905092915050565b60005b83811015611aed578082015181840152602081019050611ad2565b60008484015250505050565b6000601f19601f8301169050919050565b6000611b1582611ab3565b611b1f8185611abe565b9350611b2f818560208601611acf565b611b3881611af9565b840191505092915050565b60006020820190508181036000830152611b5d8184611b0a565b905092915050565b6000819050919050565b611b7881611b65565b8114611b8357600080fd5b50565b600081359050611b9581611b6f565b92915050565b600060208284031215611bb157611bb06119ee565b5b6000611bbf84828501611b86565b91505092915050565b600073ffffffffffffffffffffffffffffffffffffffff82169050919050565b6000611bf382611bc8565b9050919050565b611c0381611be8565b82525050565b6000602082019050611c1e6000830184611bfa565b92915050565b611c2d81611be8565b8114611c3857600080fd5b50565b600081359050611c4a81611c24565b92915050565b60008060408385031215611c6757611c666119ee565b5b6000611c7585828601611c3b565b9250506020611c8685828601611b86565b9150509250929050565b600080600060608486031215611ca957611ca86119ee565b5b6000611cb786828701611c3b565b9350506020611cc886828701611c3b565b9250506040611cd986828701611b86565b9150509250925092565b600080fd5b600080fd5b7f4e487b7100000000000000000000000000000000000000000000000000000000600052604160045260246000fd5b611d2582611af9565b810181811067ffffffffffffffff82111715611d4457611d43611ced565b5b80604052505050565b6000611d576119e4565b9050611d638282611d1c565b919050565b600067ffffffffffffffff821115611d8357611d82611ced565b5b611d8c82611af9565b9050602081019050919050565b82818337600083830152505050565b6000611dbb611db684611d68565b611d4d565b905082815260208101848484011115611dd757611dd6611ce8565b5b611de2848285611d99565b509392505050565b600082601f830112611dff57611dfe611ce3565b5b8135611e0f848260208601611da8565b91505092915050565b600067ffffffffffffffff821115611e3357611e32611ced565b5b602082029050602081019050919050565b600080fd5b6000611e5c611e5784611e18565b611d4d565b90508083825260208201905060208402830185811115611e7f57611e7e611e44565b5b835b81811015611ea85780611e948882611b86565b845260208401935050602081019050611e81565b5050509392505050565b600082601f830112611ec757611ec6611ce3565b5b8135611ed7848260208601611e49565b91505092915050565b60008060408385031215611ef757611ef66119ee565b5b600083013567ffffffffffffffff811115611f1557611f146119f3565b5b611f2185828601611dea565b925050602083013567ffffffffffffffff811115611f4257611f416119f3565b5b611f4e85828601611eb2565b9150509250929050565b600060208284031215611f6e57611f6d6119ee565b5b6000611f7c84828501611c3b565b91505092915050565b611f8e81611b65565b82525050565b6000602082019050611fa96000830184611f85565b92915050565b600080600060608486031215611fc857611fc76119ee565b5b6000611fd686828701611c3b565b935050602084013567ffffffffffffffff811115611ff757611ff66119f3565b5b61200386828701611dea565b925050604084013567ffffffffffffffff811115612024576120236119f3565b5b61203086828701611eb2565b9150509250925092565b61204381611a7d565b811461204e57600080fd5b50565b6000813590506120608161203a565b92915050565b6000806040838503121561207d5761207c6119ee565b5b600061208b85828601611c3b565b925050602061209c85828601612051565b9150509250929050565b600080600080608085870312156120c0576120bf6119ee565b5b60006120ce87828801611c3b565b94505060206120df87828801611c3b565b93505060406120f087828801611b86565b925050606085013567ffffffffffffffff811115612111576121106119f3565b5b61211d87828801611dea565b91505092959194509250565b600080604083850312156121405761213f6119ee565b5b600061214e85828601611c3b565b925050602061215f85828601611c3b565b9150509250929050565b7f4e487b7100000000000000000000000000000000000000000000000000000000600052602260045260246000fd5b600060028204905060018216806121b057607f821691505b6020821081036121c3576121c2612169565b5b50919050565b7f5342543a205472616e73666572206e6f7420616c6c6f77656400000000000000600082015250565b60006121ff601983611abe565b915061220a826121c9565b602082019050919050565b6000602082019050818103600083015261222e816121f2565b9050919050565b7f4e487b7100000000000000000000000000000000000000000000000000000000600052601160045260246000fd5b600061226f82611b65565b91507fffffffffffffffffffffffffffffffffffffffffffffffffffffffffffffffff82036122a1576122a0612235565b5b600182019050919050565b7f4e487b7100000000000000000000000000000000000000000000000000000000600052603260045260246000fd5b600081905092915050565b60006122f182611ab3565b6122fb81856122db565b935061230b818560208601611acf565b80840191505092915050565b600061232382856122e6565b915061232f82846122e6565b91508190509392505050565b7f4e487b7100000000000000000000000000000000000000000000000000000000600052601260045260246000fd5b600081519050919050565b600082825260208201905092915050565b60006123918261236a565b61239b8185612375565b93506123ab818560208601611acf565b6123b481611af9565b840191505092915050565b60006080820190506123d46000830187611bfa565b6123e16020830186611bfa565b6123ee6040830185611f85565b81810360608301526124008184612386565b905095945050505050565b60008151905061241a81611a24565b92915050565b600060208284031215612436576124356119ee565b5b60006124448482850161240b565b91505092915050565b60006040820190506124626000830185611bfa565b61246f6020830184611f85565b939250505056fea2646970667358221220734ba79fada6765e807400662d240cb1e056d38862cf88622ae31b903cbaae9264736f6c63430008140033",
  "linkReferences": {},
  "deployedLinkReferences": {}
}